{
    "contractName": "EasySwapVault",
    "abi": [
        {
            "inputs": [],
            "name": "InvalidInitialization",
            "type": "error"
        },
        {
            "inputs": [],
            "name": "NotInitializing",
            "type": "error"
        },
        {
            "inputs": [
                {
                    "internalType": "address",
                    "name": "owner",
                    "type": "address"
                }
            ],
            "name": "OwnableInvalidOwner",
            "type": "error"
        },
        {
            "inputs": [
                {
                    "internalType": "address",
                    "name": "account",
                    "type": "address"
                }
            ],
            "name": "OwnableUnauthorizedAccount",
            "type": "error"
        },
        {
            "anonymous": false,
            "inputs": [
                {
                    "indexed": false,
                    "internalType": "uint64",
                    "name": "version",
                    "type": "uint64"
                }
            ],
            "name": "Initialized",
            "type": "event"
        },
        {
            "anonymous": false,
            "inputs": [
                {
                    "indexed": true,
                    "internalType": "address",
                    "name": "previousOwner",
                    "type": "address"
                },
                {
                    "indexed": true,
                    "internalType": "address",
                    "name": "newOwner",
                    "type": "address"
                }
            ],
            "name": "OwnershipTransferred",
            "type": "event"
        },
        {
            "inputs": [
                {
                    "internalType": "OrderKey",
                    "name": "",
                    "type": "bytes32"
                }
            ],
            "name": "ETHBalance",
            "outputs": [
                {
                    "internalType": "uint256",
                    "name": "",
                    "type": "uint256"
                }
            ],
            "stateMutability": "view",
            "type": "function"
        },
        {
            "inputs": [
                {
                    "internalType": "OrderKey",
                    "name": "",
                    "type": "bytes32"
                }
            ],
            "name": "NFTBalance",
            "outputs": [
                {
                    "internalType": "uint256",
                    "name": "",
                    "type": "uint256"
                }
            ],
            "stateMutability": "view",
            "type": "function"
        },
        {
            "inputs": [
                {
                    "internalType": "OrderKey",
                    "name": "orderKey",
                    "type": "bytes32"
                }
            ],
            "name": "balanceOf",
            "outputs": [
                {
                    "internalType": "uint256",
                    "name": "ETHAmount",
                    "type": "uint256"
                },
                {
                    "internalType": "uint256",
                    "name": "tokenId",
                    "type": "uint256"
                }
            ],
            "stateMutability": "view",
            "type": "function"
        },
        {
            "inputs": [
                {
                    "internalType": "address",
                    "name": "to",
                    "type": "address"
                },
                {
                    "components": [
                        {
                            "internalType": "address",
                            "name": "collection",
                            "type": "address"
                        },
                        {
                            "internalType": "uint256",
                            "name": "tokenId",
                            "type": "uint256"
                        }
                    ],
                    "internalType": "struct LibOrder.NFTInfo[]",
                    "name": "assets",
                    "type": "tuple[]"
                }
            ],
            "name": "batchTransferERC721",
            "outputs": [],
            "stateMutability": "nonpayable",
            "type": "function"
        },
        {
            "inputs": [
                {
                    "internalType": "OrderKey",
                    "name": "orderKey",
                    "type": "bytes32"
                },
                {
                    "internalType": "uint256",
                    "name": "ETHAmount",
                    "type": "uint256"
                }
            ],
            "name": "depositETH",
            "outputs": [],
            "stateMutability": "payable",
            "type": "function"
        },
        {
            "inputs": [
                {
                    "internalType": "OrderKey",
                    "name": "orderKey",
                    "type": "bytes32"
                },
                {
                    "internalType": "address",
                    "name": "from",
                    "type": "address"
                },
                {
                    "internalType": "address",
                    "name": "collection",
                    "type": "address"
                },
                {
                    "internalType": "uint256",
                    "name": "tokenId",
                    "type": "uint256"
                }
            ],
            "name": "depositNFT",
            "outputs": [],
            "stateMutability": "nonpayable",
            "type": "function"
        },
        {
            "inputs": [
                {
                    "internalType": "OrderKey",
                    "name": "oldOrderKey",
                    "type": "bytes32"
                },
                {
                    "internalType": "OrderKey",
                    "name": "newOrderKey",
                    "type": "bytes32"
                },
                {
                    "internalType": "uint256",
                    "name": "oldETHAmount",
                    "type": "uint256"
                },
                {
                    "internalType": "uint256",
                    "name": "newETHAmount",
                    "type": "uint256"
                },
                {
                    "internalType": "address",
                    "name": "to",
                    "type": "address"
                }
            ],
            "name": "editETH",
            "outputs": [],
            "stateMutability": "payable",
            "type": "function"
        },
        {
            "inputs": [
                {
                    "internalType": "OrderKey",
                    "name": "oldOrderKey",
                    "type": "bytes32"
                },
                {
                    "internalType": "OrderKey",
                    "name": "newOrderKey",
                    "type": "bytes32"
                }
            ],
            "name": "editNFT",
            "outputs": [],
            "stateMutability": "nonpayable",
            "type": "function"
        },
        {
            "inputs": [],
            "name": "initialize",
            "outputs": [],
            "stateMutability": "nonpayable",
            "type": "function"
        },
        {
            "inputs": [
                {
                    "internalType": "address",
                    "name": "",
                    "type": "address"
                },
                {
                    "internalType": "address",
                    "name": "",
                    "type": "address"
                },
                {
                    "internalType": "uint256",
                    "name": "",
                    "type": "uint256"
                },
                {
                    "internalType": "bytes",
                    "name": "",
                    "type": "bytes"
                }
            ],
            "name": "onERC721Received",
            "outputs": [
                {
                    "internalType": "bytes4",
                    "name": "",
                    "type": "bytes4"
                }
            ],
            "stateMutability": "nonpayable",
            "type": "function"
        },
        {
            "inputs": [],
            "name": "orderBook",
            "outputs": [
                {
                    "internalType": "address",
                    "name": "",
                    "type": "address"
                }
            ],
            "stateMutability": "view",
            "type": "function"
        },
        {
            "inputs": [],
            "name": "owner",
            "outputs": [
                {
                    "internalType": "address",
                    "name": "",
                    "type": "address"
                }
            ],
            "stateMutability": "view",
            "type": "function"
        },
        {
            "inputs": [],
            "name": "renounceOwnership",
            "outputs": [],
            "stateMutability": "nonpayable",
            "type": "function"
        },
        {
            "inputs": [
                {
                    "internalType": "address",
                    "name": "newOrderBook",
                    "type": "address"
                }
            ],
            "name": "setOrderBook",
            "outputs": [],
            "stateMutability": "nonpayable",
            "type": "function"
        },
        {
            "inputs": [
                {
                    "internalType": "address",
                    "name": "from",
                    "type": "address"
                },
                {
                    "internalType": "address",
                    "name": "to",
                    "type": "address"
                },
                {
                    "components": [
                        {
                            "internalType": "uint256",
                            "name": "tokenId",
                            "type": "uint256"
                        },
                        {
                            "internalType": "address",
                            "name": "collection",
                            "type": "address"
                        },
                        {
                            "internalType": "uint96",
                            "name": "amount",
                            "type": "uint96"
                        }
                    ],
                    "internalType": "struct LibOrder.Asset",
                    "name": "assets",
                    "type": "tuple"
                }
            ],
            "name": "transferERC721",
            "outputs": [],
            "stateMutability": "nonpayable",
            "type": "function"
        },
        {
            "inputs": [
                {
                    "internalType": "address",
                    "name": "newOwner",
                    "type": "address"
                }
            ],
            "name": "transferOwnership",
            "outputs": [],
            "stateMutability": "nonpayable",
            "type": "function"
        },
        {
            "inputs": [
                {
                    "internalType": "OrderKey",
                    "name": "orderKey",
                    "type": "bytes32"
                },
                {
                    "internalType": "uint256",
                    "name": "ETHAmount",
                    "type": "uint256"
                },
                {
                    "internalType": "address",
                    "name": "to",
                    "type": "address"
                }
            ],
            "name": "withdrawETH",
            "outputs": [],
            "stateMutability": "nonpayable",
            "type": "function"
        },
        {
            "inputs": [
                {
                    "internalType": "OrderKey",
                    "name": "orderKey",
                    "type": "bytes32"
                },
                {
                    "internalType": "address",
                    "name": "to",
                    "type": "address"
                },
                {
                    "internalType": "address",
                    "name": "collection",
                    "type": "address"
                },
                {
                    "internalType": "uint256",
                    "name": "tokenId",
                    "type": "uint256"
                }
            ],
            "name": "withdrawNFT",
            "outputs": [],
            "stateMutability": "nonpayable",
            "type": "function"
        },
        {
            "stateMutability": "payable",
            "type": "receive"
        }
    ],
    "bytecode": "60808060405234601557610cce908161001a8239f35b5f80fdfe6080604052600436101561001a575b3615610018575f80fd5b005b5f3560e01c80630b049458146101395780630f5daeaf14610134578063150b7a021461012f578063524397531461012a5780635eb0c73a146101255780635f91a0f0146101205780636c7f15421461011b578063715018a614610116578063776af5ba146101115780638129fc1c1461010c5780638a03f995146101075780638da5cb5b146101025780639a1598c8146100fd578063bf0a59e0146100f8578063ca1e298a146100f3578063e7a394fa146100ee578063eb214e09146100e95763f2fde38b0361000e5761093b565b610911565b610885565b61083a565b610776565b6106f0565b6106bc565b610692565b61052d565b610506565b61049f565b610465565b61041b565b6103ae565b61031a565b610231565b6101b1565b610153565b6001600160a01b0381160361014f57565b5f80fd5b3461014f57606036600319011261014f576044356024356004356101768361013e565b61018a60018060a01b035f54163314610968565b5f52600160205260405f209182548281039081116101ac576100189355610b2d565b6109b4565b3461014f57604036600319011261014f576004356101ce8161013e565b6024359067ffffffffffffffff821161014f573660238301121561014f5781600401359067ffffffffffffffff821161014f573660248360061b8501011161014f5760246100189301906109f9565b634e487b7160e01b5f52604160045260245ffd5b3461014f57608036600319011261014f5761024d60043561013e565b61025860243561013e565b60643567ffffffffffffffff811161014f573660238201121561014f5780600401359067ffffffffffffffff82116102e55760405191601f8101601f19908116603f0116830167ffffffffffffffff8111848210176102e557604052808352366024828401011161014f575f928160246020940184830137010152604051630a85bd0160e11b8152602090f35b61021d565b608090600319011261014f57600435906024356103068161013e565b906044356103138161013e565b9060643590565b3461014f57610328366102ea565b919061033e60018060a01b035f54163314610968565b835f5260026020528260405f20540361037157610018935f5260026020525f6040812055309060018060a01b0316610b77565b60405162461bcd60e51b815260206004820152601560248201527412158e881b9bdd081b585d18da081d1bdad95b9259605a1b6044820152606490fd5b3461014f5760a036600319011261014f576004356103cb8161013e565b602435906103d88261013e565b606036604319011261014f57610018916103fc60018060a01b035f54163314610968565b606435916104098361013e565b604435926001600160a01b0316610b77565b3461014f5761045561042c366102ea565b939190849161044560018060a01b035f54163314610968565b30916001600160a01b0316610b77565b5f52600260205260405f20555f80f35b3461014f57602036600319011261014f576040600435805f526001602052815f2054905f526002602052815f205482519182526020820152f35b3461014f575f36600319011261014f576104b7610bfa565b5f516020610c595f395f51905f5280546001600160a01b031981169091555f906001600160a01b03167f8be0079c531659141344cd1fd0a4f28419497f9722a3daafe3b4186f6b6457e08280a3005b3461014f575f36600319011261014f575f546040516001600160a01b039091168152602090f35b3461014f575f36600319011261014f575f516020610c795f395f51905f525467ffffffffffffffff61056f60ff604084901c16159267ffffffffffffffff1690565b168015908161068a575b6001149081610680575b159081610677575b5061066857806105c2600167ffffffffffffffff195f516020610c795f395f51905f525416175f516020610c795f395f51905f5255565b61062e575b6105cf610a48565b6105d557005b6105ff60ff60401b195f516020610c795f395f51905f5254165f516020610c795f395f51905f5255565b604051600181527fc7f505b2f371ae2175ee4913f4499e1f2633a7b5936321eed1cdaeb6115181d290602090a1005b6106636801000000000000000060ff60401b195f516020610c795f395f51905f525416175f516020610c795f395f51905f5255565b6105c7565b63f92ee8a960e01b5f5260045ffd5b9050155f61058b565b303b159150610583565b829150610579565b3461014f57602036600319011261014f576004355f526001602052602060405f2054604051908152f35b3461014f575f36600319011261014f575f516020610c595f395f51905f52546040516001600160a01b039091168152602090f35b3461014f57602036600319011261014f5760043561070d8161013e565b610715610bfa565b6001600160a01b0316801561073e576bffffffffffffffffffffffff60a01b5f5416175f555f80f35b60405162461bcd60e51b815260206004820152601060248201526f48563a207a65726f206164647265737360801b6044820152606490fd5b60a036600319011261014f5760243560843560643560443560043561079a8461013e565b6107ae60018060a01b035f54163314610968565b5f5260016020525f60408120558181115f146107eb57906107e591816107df610018965f52600160205260405f2090565b556109c8565b90610b2d565b91508082101561082a578181039081116101ac576108279161081261081892341015610a63565b34610aaf565b915f52600160205260405f2090565b55005b50905f52600160205260405f2055005b3461014f57604036600319011261014f5760043560243561086560018060a01b035f54163314610968565b5f8281526002602052604080822080549383529082209290925591825255005b604036600319011261014f576004356024356108ab60018060a01b035f54163314610968565b34106108cc575f52600160205260405f208054903482018092116101ac5755005b60405162461bcd60e51b815260206004820152601760248201527f48563a206e6f74206d6174636820455448416d6f756e740000000000000000006044820152606490fd5b3461014f57602036600319011261014f576004355f526002602052602060405f2054604051908152f35b3461014f57602036600319011261014f5761001860043561095b8161013e565b610963610bfa565b610abc565b1561096f57565b60405162461bcd60e51b815260206004820152601b60248201527f48563a206f6e6c79204561737953776170204f72646572426f6f6b00000000006044820152606490fd5b634e487b7160e01b5f52601160045260245ffd5b919082039182116101ac57565b91908110156109e55760061b0190565b634e487b7160e01b5f52603260045260245ffd5b5f5b838110610a085750505050565b80610a42610a1960019387876109d5565b35610a238161013e565b846020610a31858a8a6109d5565b0135913390868060a01b0316610b77565b016109fb565b610a50610c2d565b610a58610c2d565b610a6133610abc565b565b15610a6a57565b60405162461bcd60e51b815260206004820152601a60248201527f48563a206e6f74206d61746368206e6577455448416d6f756e740000000000006044820152606490fd5b919082018092116101ac57565b6001600160a01b03168015610b1a575f516020610c595f395f51905f5280546001600160a01b0319811683179091556001600160a01b03167f8be0079c531659141344cd1fd0a4f28419497f9722a3daafe3b4186f6b6457e05f80a3565b631e4fbdf760e01b5f525f60045260245ffd5b5f80809381935af115610b3c57565b60405162461bcd60e51b815260206004820152601360248201527211551217d514905394d1915497d19052531151606a1b6044820152606490fd5b905f606492602095829560405194632142170760e11b86526004860152602485015260448401525af13d15601f3d1160015f511416171615610bb557565b60405162461bcd60e51b815260206004820152601860248201527f4e46545f5452414e534645525f46524f4d5f4641494c454400000000000000006044820152606490fd5b5f516020610c595f395f51905f52546001600160a01b03163303610c1a57565b63118cdaa760e01b5f523360045260245ffd5b60ff5f516020610c795f395f51905f525460401c1615610c4957565b631afcd79f60e31b5f5260045ffdfe9016d09d72d40fdae2fd8ceac6b6234c7706214fd39c1cd1e609a0528c199300f0c57e16840df040f15088dc2f81fe391c3923bec73e23a9662efc9c229c6a00a26469706673582212203d2cdb625da87fd0369a94ddceec3e88aba6c12d491d2f312c5de5941b12083664736f6c634300081c0033",
    "sourcePath": "c:/Users/zc124/Desktop/EasySwap/EasySwapContract/contracts/EasySwapVault.sol",
    "compiler": {
        "name": "solc",
        "version": "0.8.28+commit.7893614a"
    },
    "functionHashes": {
        "ETHBalance(bytes32)": "8a03f995",
        "NFTBalance(bytes32)": "eb214e09",
        "balanceOf(bytes32)": "6c7f1542",
        "batchTransferERC721(address,(address,uint256)[])": "0f5daeaf",
        "depositETH(bytes32,uint256)": "e7a394fa",
        "depositNFT(bytes32,address,address,uint256)": "5f91a0f0",
        "editETH(bytes32,bytes32,uint256,uint256,address)": "bf0a59e0",
        "editNFT(bytes32,bytes32)": "ca1e298a",
        "initialize()": "8129fc1c",
        "onERC721Received(address,address,uint256,bytes)": "150b7a02",
        "orderBook()": "776af5ba",
        "owner()": "8da5cb5b",
        "renounceOwnership()": "715018a6",
        "setOrderBook(address)": "9a1598c8",
        "transferERC721(address,address,(uint256,address,uint96))": "5eb0c73a",
        "transferOwnership(address)": "f2fde38b",
        "withdrawETH(bytes32,uint256,address)": "0b049458",
        "withdrawNFT(bytes32,address,address,uint256)": "52439753"
    },
    "gasEstimates": {
        "creation": {
            "codeDepositCost": "655600",
            "executionCost": "697",
            "totalCost": "656297"
        },
        "external": {
            "ETHBalance(bytes32)": "2545",
            "NFTBalance(bytes32)": "2677",
            "balanceOf(bytes32)": "4639",
            "batchTransferERC721(address,(address,uint256)[])": "infinite",
            "depositETH(bytes32,uint256)": "26941",
            "depositNFT(bytes32,address,address,uint256)": "infinite",
            "editETH(bytes32,bytes32,uint256,uint256,address)": "infinite",
            "editNFT(bytes32,bytes32)": "31968",
            "initialize()": "infinite",
            "onERC721Received(address,address,uint256,bytes)": "infinite",
            "orderBook()": "2459",
            "owner()": "infinite",
            "renounceOwnership()": "28276",
            "setOrderBook(address)": "infinite",
            "transferERC721(address,address,(uint256,address,uint96))": "infinite",
            "transferOwnership(address)": "28624",
            "withdrawETH(bytes32,uint256,address)": "infinite",
            "withdrawNFT(bytes32,address,address,uint256)": "infinite"
        }
    }
}